:020000040800F2
:100000000000022029260008890800088F0800083F
:10001000950800089B080008A108000800000000DF
:10002000000000000000000000000000A708000819
:10003000B508000800000000C3080008D108000847
:100040007926000879260008792600087926000814
:100050007926000879260008DD08000879260008BE
:1000600079260008792600087926000879260008F4
:1000700079260008792600087926000879260008E4
:1000800079260008792600087926000879260008D4
:100090004509000879260008792600087926000815
:1000A00079260008792600087926000879260008B4
:1000B00079260008792600087926000879260008A4
:1000C0007926000879260008792600087926000894
:1000D0007926000879260008792600087926000884
:1000E0007926000879260008792600087926000874
:1000F0007926000879260008792600087926000864
:100100007926000879260008792600087926000853
:100110007926000879260008792600087926000843
:100120007926000879260008792600087926000833
:100130007926000879260008792600087926000823
:100140007926000879260008792600087926000813
:100150007926000879260008792600087926000803
:1001600079260008792600087926000879260008F3
:10017000792600087926000879260008000000008A
:08018000792600087926000829
:1001880010B5054C237833B9044B13B10448AFF3C9
:1001980000800123237010BD0C0000200000000027
:1001A800D426000808B5034B1BB103490348AFF335
:1001B800008008BD0000000010000020D4260008C0
:1001C80053B94AB9002908BF00281CBF4FF0FF31B6
:1001D8004FF0FF3000F074B9ADF1080C6DE904CEB2
:1001E80000F006F8DDF804E0DDE9022304B070470A
:1001F8002DE9F047089D04468E46002B4DD18A42D2
:10020800944669D9B2FA82F252B101FA02F3C2F104
:10021800200120FA01F10CFA02FC41EA030E944095
:100228004FEA1C48210CBEFBF8F61FFA8CF708FBB6
:1002380016E341EA034306FB07F199420AD91CEB8E
:10024800030306F1FF3080F01F81994240F21C81C0
:10025800023E63445B1AA4B2B3FBF8F008FB103308
:1002680044EA034400FB07F7A7420AD91CEB04043D
:1002780000F1FF3380F00A81A74240F2078164440D
:10028800023840EA0640E41B00261DB1D440002392
:10029800C5E900433146BDE8F0878B4209D9002DF6
:1002A80000F0EF800026C5E9000130463146BDE880
:1002B800F087B3FA83F6002E4AD18B4202D38242EA
:1002C80000F2F980841A61EB030301209E46002D99
:1002D800E0D0C5E9004EDDE702B9FFDEB2FA82F2EE
:1002E800002A40F09280A1EB0C014FEA1C471FFA4C
:1002F8008CFE0126200CB1FBF7F307FB131140EA33
:1003080001410EFB03F0884208D91CEB010103F1FF
:10031800FF3802D2884200F2CB804346091AA4B2C1
:10032800B1FBF7F007FB101144EA01440EFB00FE95
:10033800A64508D91CEB040400F1FF3102D2A645FA
:1003480000F2BB800846A4EB0E0440EA03409CE799
:10035800C6F12007B34022FA07FC4CEA030C20FA46
:1003680007F401FA06F31C43F9404FEA1C4900FA66
:1003780006F3B1FBF9F8200C1FFA8CFE09FB1811E3
:1003880040EA014108FB0EF0884202FA06F20BD956
:100398001CEB010108F1FF3A80F08880884240F2A6
:1003A8008580A8F102086144091AA4B2B1FBF9F0EA
:1003B80009FB101144EA014100FB0EFE8E4508D9E5
:1003C8001CEB010100F1FF346CD28E456AD902386A
:1003D800614440EA0840A0FB0294A1EB0E01A1424F
:1003E800C846A64656D353D05DB1B3EB080261EBBD
:1003F8000E0101FA07F722FA06F3F1401F43C5E997
:10040800007100263146BDE8F087C2F12003D840CC
:100418000CFA02FC21FA03F3914001434FEA1C470E
:100428001FFA8CFEB3FBF7F007FB10360B0C43EA00
:10043800064300FB0EF69E4204FA02F408D91CEBB0
:10044800030300F1FF382FD29E422DD902386344AE
:100458009B1B89B2B3FBF7F607FB163341EA03414E
:1004680006FB0EF38B4208D91CEB010106F1FF389D
:1004780016D28B4214D9023E6144C91A46EA004694
:1004880038E72E46284605E70646E3E61846F8E626
:100498004B45A9D2B9EB020864EB0C0E0138A3E76F
:1004A8004646EAE7204694E74046D1E7D0467BE750
:1004B800023B614432E7304609E76444023842E7C8
:1004C800704700BF80B500AF00F064FA00F042F852
:1004D80000F0E0F800F0A8F81A4800F0A9FC0221A2
:1004E800184800F0D6FE184B01221A61164B00225C
:1004F8009A60154B0022DA60134B4FF4FC621A60C5
:10050800124B01221A62114B00225A610F4B002232
:100518001A610E4B4FF429521A600C4B00225A6094
:100528000A4B0B4A9A60094B0022DA60074B0122FA
:100538009A61064B0022DA610449024800F098FBF0
:10054800FEE700BF2800002054000020880000209B
:10055800E0FF010080B594B000AF07F1200330221E
:100568000021184602F0AAF807F10C0300221A60CD
:100578005A609A60DA601A610023BB60284B1B6CD2
:10058800274A43F080531364254B1B6C03F08053B8
:10059800BB60BB6800237B60224B1B68214A43F485
:1005A800804313601F4B1B6803F480437B607B68A8
:1005B80001233B624FF480337B620223BB634FF419
:1005C8008003FB6304233B64A8237B640223BB648E
:1005D8000423FB6407F12003184601F0BDFB034622
:1005E800002B01D000F0CEF80F23FB6002233B6103
:1005F80000237B614FF4A053BB614FF48053FB6130
:1006080007F10C030521184601F01EFE0346002BD6
:1006180001D000F0B7F800BF5037BD4680BD00BF1D
:10062800003802400070004080B500AF174B184AF0
:100638001A60164B10225A60144B00229A60134B12
:100648000022DA60114B4FF410221A610F4B4FF45D
:1006580080025A610D4B00221A760C4B00225A7602
:100668000A4B00229A76094B0022DA76074B0022C1
:100678001A77064B00225A77044800F0FDF9034622
:10068800002B01D000F07EF800BF80BD28000020BC
:100698000064004080B58AB000AF07F1140300225F
:1006A8001A605A609A60DA601A6100233B61324B23
:1006B8001B6B314A43F0800313632F4B1B6B03F012
:1006C80080033B613B690023FB602B4B1B6B2A4A71
:1006D80043F001031363284B1B6B03F00103FB601A
:1006E800FB680023BB60244B1B6B234A43F00803C1
:1006F8001363214B1B6B03F00803BB60BB6800232B
:100708007B601D4B1B6B1C4A43F0020313631A4B9F
:100718001B6B03F002037B607B6800224FF470417F
:10072800164801F0DBFA01237B614FF48813BB61A3
:100738000023FB6107F114031946114801F01AF967
:100748004FF470437B610123BB610023FB610023ED
:100758003B6207F114031946084801F00BF900221F
:100768000021062001F0CFF8062001F0E8F800BFCC
:100778002837BD4680BD00BF00380240000C02404B
:100788000000024080B400AF72B600BFFEE7000070
:1007980080B582B000AF00237B60104B5B6C0F4AC2
:1007A80043F4804353640D4B5B6C03F480437B60DC
:1007B8007B6800233B60094B1B6C084A43F080535D
:1007C8001364064B1B6C03F080533B603B680720A7
:1007D80001F08EF800BF0837BD4680BD00380240E2
:1007E80080B58AB000AF786007F1140300221A6060
:1007F8005A609A60DA601A617B681B681D4A9342E6
:1008080034D100233B611C4B1B6C1B4A43F0007323
:100818001364194B1B6C03F000733B613B690023A5
:10082800FB60154B1B6B144A43F002031363124B16
:100838001B6B03F00203FB60FB684FF440737B61A2
:100848000223BB610023FB6103233B6209237B6214
:1008580007F114031946094801F08CF80122002118
:10086800142001F050F8142001F069F800BF28376F
:10087800BD4680BD006400400038024000040240CC
:1008880080B400AFFEE780B400AFFEE780B400AFED
:10089800FEE780B400AFFEE780B400AFFEE780B4A7
:1008A80000AF00BFBD465DF8047B704780B400AF61
:1008B80000BFBD465DF8047B704780B400AF00BF41
:1008C800BD465DF8047B704780B500AF00F0B4F812
:1008D80000BF80BD80B582B000AF00237B6002E01E
:1008E8007B6801337B607B680E4A9342F8DD012008
:1008F80001F00EFA01210C4801F0D8F90346002B4B
:100908000BD00A4B1B780133DAB2084B1A70084B2C
:10091800064A0849084800F0CFFA00BF0837BD4624
:1009280080BD00BF3F420F00000002405000002081
:10093800B0000020540000202800002080B500AF3F
:10094800074800F0CCFC074B074A0021044800F098
:100958008EFB044B1B781A03044B5A6100BF80BD01
:1009680028000020510000206C000020000C0240EC
:1009780080B400AF064BD3F88830054A43F47003BF
:10098800C2F8883000BFBD465DF8047B704700BFE1
:1009980000ED00E080B500AF0E4B1B680D4A43F434
:1009A800007313600B4B1B680A4A43F4806313609F
:1009B800084B1B68074A43F480731360032000F058
:1009C80097FF002000F008F8FFF7E2FE0023184622
:1009D80080BD00BF003C024080B582B000AF7860A7
:1009E800124B1A68124B1B7819464FF47A73B3FBF3
:1009F800F1F3B2FBF3F3184600F0AFFF0346002B08
:100A080001D001230EE07B680F2B0AD800227968F9
:100A18004FF0FF3000F077FF064A7B681360002331
:100A280000E0012318460837BD4680BD00000020BD
:100A3800080000200400002080B400AF064B1B789B
:100A48001A46064B1B681344044A136000BFBD4690
:100A58005DF8047B704700BF08000020B400002048
:100A680080B400AF034B1B681846BD465DF8047B95
:100A7800704700BFB400002080B584B000AF786034
:100A88007B68002B01D10123EDE07B6893F82030CF
:100A9800DBB2002B02D17868FFF7A2FE7B681B68E7
:100AA8001A687B681B6842F001021A60FFF7D8FFDA
:100AB800F86012E0FFF7D4FF0246FB68D31A0A2B4E
:100AC8000BD97B685B6A43F400327B685A627B68A7
:100AD800052283F820200123C5E07B681B685B683A
:100AE80003F00103002BE5D07B681B681A687B685C
:100AF8001B6822F002021A60FFF7B2FFF86012E0EA
:100B0800FFF7AEFF0246FB68D31A0A2B0BD97B68A6
:100B18005B6A43F400327B685A627B68052283F87B
:100B2800202001239FE07B681B685B6803F00203B9
:100B3800002BE5D17B681B7E012B08D17B681B68E5
:100B48001A687B681B6842F080021A6007E07B68BD
:100B58001B681A687B681B6822F080021A607B6831
:100B68005B7E012B08D17B681B681A687B681B6851
:100B780042F040021A6007E07B681B681A687B68CD
:100B88001B6822F040021A607B689B7E012B08D10B
:100B98007B681B681A687B681B6842F020021A6031
:100BA80007E07B681B681A687B681B6822F02002D4
:100BB8001A607B68DB7E012B08D17B681B681A688A
:100BC8007B681B6822F010021A6007E07B681B68CC
:100BD8001A687B681B6842F010021A607B681B7FEA
:100BE800012B08D17B681B681A687B681B6842F078
:100BF80008021A6007E07B681B681A687B681B6834
:100C080022F008021A607B685B7F012B08D17B68A1
:100C18001B681A687B681B6842F004021A6007E0C8
:100C28007B681B681A687B681B6822F004021A60DC
:100C38007B689A687B68DB681A437B681B691A4380
:100C48007B685B6942EA03017B685B685A1E7B68C4
:100C58001B680A43DA617B6800225A627B680122BA
:100C680083F82020002318461037BD4680BD0000B9
:100C780080B487B000AF786039607B681B687B619F
:100C88007B6893F82030FB74FB7C012B03D0FB7C42
:100C9800022B40F0BE80654B7B617B69D3F8003244
:100CA80043F001027B69C3F800227B69D3F8003264
:100CB80023F47C527B69C3F800227B69D3F80022B5
:100CC8003B685B6A1B021A437B69C3F800223B68D6
:100CD8005B6903F01F03012202FA03F3FB607B69DF
:100CE800D3F81C22FB68DB431A407B69C3F81C223B
:100CF8003B68DB69002B23D17B69D3F80C22FB68A6
:100D0800DB431A407B69C3F80C223B68DB68190493
:100D18003B685B689BB23A68526919437B69483201
:100D280043F832103B689B6819043B681B689AB209
:100D38003B685B690A4379694833DB000B445A60B6
:100D48003B68DB69012B22D17B69D3F80C22FB6855
:100D58001A437B69C3F80C223B681B6819043B687B
:100D68005B689BB23A68526919437B69483243F819
:100D780032103B689B6819043B68DB689AB23B6891
:100D88005B690A4379694833DB000B445A603B6866
:100D98009B69002B09D17B69D3F80422FB68DB43EC
:100DA8001A407B69C3F8042207E07B69D3F8042260
:100DB800FB681A437B69C3F804223B681B69002B54
:100DC80009D17B69D3F81422FB68DB431A407B699D
:100DD800C3F8142207E07B69D3F81422FB681A438E
:100DE8007B69C3F814223B681B6A012B07D17B6916
:100DF800D3F81C22FB681A437B69C3F81C227B6961
:100E0800D3F8003223F001027B69C3F800220023E3
:100E180006E07B685B6A43F480227B685A620123A0
:100E280018461C37BD465DF8047B704700640040D7
:100E380080B584B000AF78607B6893F82030DBB26F
:100E4800012B2ED17B68022283F820207B681B6847
:100E58001A687B681B6822F001021A60FFF700FE1F
:100E6800F86012E0FFF7FCFD0246FB68D31A0A2B74
:100E78000BD97B685B6A43F400327B685A627B68F3
:100E8800052283F82020012312E07B681B685B6839
:100E980003F00103002BE5D17B6800225A6200238E
:100EA80006E07B685B6A43F400227B685A62012390
:100EB80018461037BD4680BD80B489B000AFF860D1
:100EC800B9607A603B60FB6893F82030FB77FB6879
:100ED8001B689B68BB61FB7F012B03D0FB7F022B48
:100EE80040F0B880BB6903F08063002B0AD1BB696E
:100EF80003F00063002B05D1BB6903F08053002B7E
:100F080000F0A080BB691B0E03F003037B617B69C3
:100F1800022B07D9FB685B6A43F40002FB685A623C
:100F280001239EE001227B699A403B681A60BB68F6
:100F38009B68002B0DD1BB681B685A05BB68DB6832
:100F4800F96809681A437B6918331B010B441A6056
:100F58000FE0BB685B68DA00BB689B681A43BB6834
:100F6800DB68F96809681A437B6918331B010B446D
:100F78001A60FB681968BB681A697B6918331B011A
:100F88000B4404331A60BB681B7D012B11D1FB682D
:100F98001A687B6918331B01134404331B68FA6809
:100FA800116843F480727B6918331B010B440433C6
:100FB8001A607B6807331B781A067B6806331B7830
:100FC8001B041A437B6805331B781B0213437A689A
:100FD800043212781046FA68116843EA00027B6905
:100FE8001B010B4403F5C6731A607B6803331B7837
:100FF8001A067B6802331B781B041A437B6801338B
:101008001B781B0213437A6812781046FA68116835
:1010180043EA00027B691B010B4403F5C4731A60A1
:10102800FB681A687B6918331B0113441B68FA684C
:10103800116843F001027B6918331B010B441A60E5
:1010480000230EE0FB685B6A43F40012FB685A62F7
:10105800012306E0FB685B6A43F48022FB685A625E
:10106800012318462437BD465DF8047B704780B4D9
:1010780087B000AFF860B9607A603B60FB6893F8AE
:101088002030FB75FB7D012B03D0FB7D022B40F04C
:10109800F380BB68002B0ED1FB681B68DB6803F08C
:1010A8000303002B16D1FB685B6A43F40012FB684C
:1010B8005A620123E7E0FB681B681B6903F003031E
:1010C800002B07D1FB685B6A43F40012FB685A6285
:1010D8000123D8E0FB681A68BB681B331B01134463
:1010E8001B6803F004027B689A607B689B68002B8E
:1010F8000CD1FB681A68BB681B331B0113441B68BF
:101108005B0DC3F30A027B681A600BE0FB681A6880
:10111800BB681B331B0113441B68DB0823F06042C8
:101128007B685A60FB681A68BB681B331B01134451
:101138001B6803F002027B68DA60FB681A68BB6808
:101148001B331B01134404331B6803F00F027B6835
:101158001A61FB681A68BB681B331B01134404330C
:101168001B681B0ADAB27B689A61FB681A68BB685D
:101178001B331B01134404331B681B0C9AB27B6896
:101188005A61FB681A68BB681B01134403F5DC73DA
:101198001B68DAB23B681A70FB681A68BB681B01E7
:1011A800134403F5DC731B681A0A3B680133D2B297
:1011B8001A70FB681A68BB681B01134403F5DC73DB
:1011C8001B681A0C3B680233D2B21A70FB681A68A3
:1011D800BB681B01134403F5DC731B681A0E3B68DC
:1011E8000333D2B21A70FB681A68BB681B01134438
:1011F80003F5DE731A683B680433D2B21A70FB68D1
:101208001A68BB681B01134403F5DE731B681A0ACE
:101218003B680533D2B21A70FB681A68BB681B01B9
:10122800134403F5DE731B681A0C3B680633D2B20D
:101238001A70FB681A68BB681B01134403F5DE7358
:101248001B681A0E3B680733D2B21A70BB68002BB2
:1012580008D1FB681B68DA68FB681B6842F020024B
:10126800DA6007E0FB681B681A69FB681B6842F0D4
:1012780020021A61002306E0FB685B6A43F48022BF
:10128800FB685A62012318461C37BD465DF8047B8B
:10129800704780B485B000AF786039607B6893F898
:1012A8002030FB73FB7B012B02D0FB7B022B09D187
:1012B8007B681B6859697B681B683A680A435A61EE
:1012C800002306E07B685B6A43F480227B685A62ED
:1012D800012318461437BD465DF8047B704780B576
:1012E8008AB000AF786000237B627B681B685B690B
:1012F8003B627B681B685B68FB617B681B689B685B
:10130800BB617B681B68DB687B617B681B681B694A
:101318003B617B681B689B69FB603B6A03F00103C8
:10132800002B7CD0BB6903F00103002B23D07B6822
:101338001B6801229A60BB6903F00203002B03D0EB
:10134800786800F083F916E0BB6903F00403002B0A
:1013580004D07B6A43F400637B620CE0BB6903F052
:101368000803002B04D07B6A43F480537B6202E0BD
:10137800786800F089F9BB6903F48073002B24D0E6
:101388007B681B684FF480729A60BB6903F4007332
:10139800002B03D0786800F063F916E0BB6903F40A
:1013A8008063002B04D07B6A43F400537B620CE01B
:1013B800BB6903F40063002B04D07B6A43F48043C9
:1013C8007B6202E0786800F069F9BB6903F4803356
:1013D800002B24D07B681B684FF480329A60BB696D
:1013E80003F40033002B03D0786800F043F916E0CB
:1013F800BB6903F48023002B04D07B6A43F40043C9
:101408007B620CE0BB6903F40023002B04D07B6AE9
:1014180043F480337B6202E0786800F049F93B6A64
:1014280003F00803002B0CD07B6903F01003002B9A
:1014380007D07B6A43F400737B627B681B681022C9
:10144800DA603B6A03F00403002B0BD07B6903F0DE
:101458000803002B06D07B681B680822DA607868CE
:1014680000F03AF93B6A03F00203002B09D07B68CD
:101478001B68DB6803F00303002B02D0786800F0D8
:1014880021F93B6A03F04003002B0CD03B6903F0C1
:101498001003002B07D07B6A43F480637B627B6870
:1014A8001B6810221A613B6A03F02003002B0BD043
:1014B8003B6903F00803002B06D07B681B680822F1
:1014C8001A61786800F01CF93B6A03F01003002BDE
:1014D80009D07B681B681B6903F00303002B02D04B
:1014E800786800F003F93B6A03F40033002B0BD053
:1014F800FB6903F01003002B06D07B681B681022E1
:101508005A60786800F006F93B6A03F48033002BD0
:101518000BD0FB6903F00803002B06D07B681B681F
:1015280008225A60786800F0FFF83B6A03F4004329
:10153800002B7BD0FB6903F00403002B72D03B6ABD
:1015480003F48073002B08D0FB6803F00103002B21
:1015580003D07B6A43F001037B623B6A03F40073A8
:10156800002B08D0FB6803F00203002B03D07B6A32
:1015780043F002037B623B6A03F48063002B08D0CC
:10158800FB6803F00403002B03D07B6A43F00403D9
:101598007B623B6A03F40063002B43D0FB6803F0D3
:1015A8007003002B3ED0FB6803F07003602B2BD038
:1015B800602B2ED8502B22D0502B2AD8402B19D054
:1015C800402B26D8302B10D0302B22D8102B02D00D
:1015D800202B05D01DE07B6A43F008037B6219E0ED
:1015E8007B6A43F010037B6214E07B6A43F02003BC
:1015F8007B620FE07B6A43F040037B620AE07B6A10
:1016080043F080037B6205E07B6A43F480737B626E
:1016180000E000BF7B681B689A697B681B6822F042
:1016280070029A617B681B6804225A607B6A002BEF
:1016380008D07B685A6A7B6A1A437B685A62786862
:1016480000F07CF800BF2837BD4680BD80B483B069
:1016580000AF786000BF0C37BD465DF8047B70476B
:1016680080B483B000AF786000BF0C37BD465DF82A
:10167800047B704780B483B000AF786000BF0C373C
:10168800BD465DF8047B704780B483B000AF7860D6
:1016980000BF0C37BD465DF8047B704780B483B04B
:1016A80000AF786000BF0C37BD465DF8047B70471B
:1016B80080B483B000AF786000BF0C37BD465DF8DA
:1016C800047B704780B483B000AF786000BF0C37EC
:1016D800BD465DF8047B704780B483B000AF786086
:1016E80000BF0C37BD465DF8047B704780B483B0FB
:1016F80000AF786000BF0C37BD465DF8047B7047CB
:1017080080B483B000AF786000BF0C37BD465DF889
:10171800047B704780B483B000AF786000BF0C379B
:10172800BD465DF8047B704780B483B000AF786035
:1017380000BF0C37BD465DF8047B704780B483B0AA
:1017480000AF786000BF0C37BD465DF8047B70477A
:1017580080B485B000AF78607B6803F00703FB6056
:101768000C4BDB68BB60BA684FF6FF031340BB60E5
:10177800FB681A02BB68134343F0BF6343F40033AA
:10178800BB60044ABB68D36000BF1437BD465DF830
:10179800047B704700ED00E080B400AF044BDB68C9
:1017A8001B0A03F007031846BD465DF8047B704723
:1017B80000ED00E080B483B000AF0346FB7197F9F9
:1017C8000730002B0BDBFB7903F01F02074997F961
:1017D80007305B09012000FA02F241F8232000BF1C
:1017E8000C37BD465DF8047B704700BF00E100E0A0
:1017F80080B483B000AF03463960FB7197F90730B6
:10180800002B0ADB3B68DAB20C4997F90730120162
:10181800D2B20B4483F800230AE03B68DAB20849E5
:10182800FB7903F00F03043B1201D2B20B441A7682
:1018380000BF0C37BD465DF8047B704700E100E04F
:1018480000ED00E080B489B000AFF860B9607A605C
:10185800FB6803F00703FB61FB69C3F10703042B73
:1018680028BF0423BB61FB690433062B02D9FB693B
:10187800033B00E000237B614FF0FF32BB6902FAB3
:1018880003F3DA43BB681A407B699A404FF0FF3193
:101898007B6901FA03F3D9437B680B40134318466D
:1018A8002437BD465DF8047B7047000080B582B0E0
:1018B80000AF78607B68013BB3F1807F01D30123DF
:1018C8000FE00A4A7B68013B53600F214FF0FF305D
:1018D800FFF78EFF054B00229A60044B07221A601F
:1018E800002318460837BD4680BD00BF10E000E061
:1018F80080B582B000AF78607868FFF729FF00BF35
:101908000837BD4680BD80B586B000AF0346B960D4
:101918007A60FB7300237B61FFF73EFF78617A688A
:10192800B9687869FFF78EFF024697F90F301146BC
:101938001846FFF75DFF00BF1837BD4680BD80B56C
:1019480082B000AF0346FB7197F907301846FFF7DE
:1019580031FF00BF0837BD4680BD80B582B000AFFB
:1019680078607868FFF7A2FF034618460837BD4637
:1019780080BD000080B489B000AF78603960002372
:101988007B6100233B610023BB610023FB616BE1AA
:101998000122FB6902FA03F37B613B681B687A69E1
:1019A80013403B613A697B699A4240F05A813B682F
:1019B8005B6803F00303012B05D03B685B6803F009
:1019C8000303022B30D17B689B68BB61FB695B001A
:1019D800032202FA03F3DB43BA691340BB613B6895
:1019E800DA68FB695B0002FA03F3BA691343BB6167
:1019F8007B68BA699A607B685B68BB610122FB6996
:101A080002FA03F3DB43BA691340BB613B685B68C6
:101A18001B0903F00102FB6902FA03F3BA691343D5
:101A2800BB617B68BA695A603B685B6803F0030373
:101A3800032B17D07B68DB68BB61FB695B00032263
:101A480002FA03F3DB43BA691340BB613B689A6847
:101A5800FB695B0002FA03F3BA691343BB617B6855
:101A6800BA69DA603B685B6803F00303022B23D191
:101A7800FB69DA087B68083253F82230BB61FB69DE
:101A880003F007039B000F2202FA03F3DB43BA6952
:101A98001340BB613B681A69FB6903F007039B00AD
:101AA80002FA03F3BA691343BB61FB69DA087B687E
:101AB8000832B96943F822107B681B68BB61FB696F
:101AC8005B00032202FA03F3DB43BA691340BB61EC
:101AD8003B685B6803F00302FB695B0002FA03F3EF
:101AE800BA691343BB617B68BA691A603B685B6873
:101AF80003F44033002B00F0B4800023FB60604BFC
:101B08005B6C5F4A43F4804353645D4B5B6C03F446
:101B18008043FB60FB685B4AFB699B08023352F811
:101B28002330BB61FB6903F003039B000F2202FA19
:101B380003F3DB43BA691340BB617B68524A9342A3
:101B48002BD07B68514A934225D07B68504A9342F8
:101B58001FD07B684F4A934219D07B684E4A934204
:101B680013D07B684D4A93420DD07B684C4A934210
:101B780007D07B684B4A934201D107230EE0082324
:101B88000CE006230AE0052308E0042306E003230B
:101B980004E0022302E0012300E00023FA6902F0D6
:101BA800030292009340BA691343BB613549FB694C
:101BB8009B080233BA6941F823203B4B1B68BB6181
:101BC8003B69DB43BA691340BB613B685B6803F45C
:101BD8008033002B03D0BA693B691343BB61324A97
:101BE800BB691360304B5B68BB613B69DB43BA6917
:101BF8001340BB613B685B6803F40033002B03D0E0
:101C0800BA693B691343BB61274ABB695360264BDA
:101C18009B68BB613B69DB43BA691340BB613B68A6
:101C28005B6803F48013002B03D0BA693B69134344
:101C3800BB611D4ABB6993601B4BDB68BB613B6999
:101C4800DB43BA691340BB613B685B6803F400136C
:101C5800002B03D0BA693B691343BB61124ABB69C5
:101C6800D360FB690133FB61FB690F2B7FF690AEF4
:101C780000BF00BF2437BD465DF8047B704700BF36
:101C880000380240003801400000024000040240D1
:101C980000080240000C02400010024000140240FC
:101CA80000180240001C0240003C014080B485B08E
:101CB80000AF78600B467B807B681A697B8813408D
:101CC800002B02D00123FB7301E00023FB73FB7B95
:101CD80018461437BD465DF8047B704780B483B05E
:101CE80000AF78600B467B8013467B707B78002BB7
:101CF80003D07A887B689A6103E07B881A047B6842
:101D08009A6100BF0C37BD465DF8047B7047000040
:101D180080B582B000AF0346FB80084B5A69FB8848
:101D28001340002B06D0054AFB885361FB881846F0
:101D380000F006F800BF0837BD4680BD003C0140F2
:101D480080B483B000AF0346FB8000BF0C37BD46AC
:101D58005DF8047B7047000080B586B000AF7860FE
:101D68007B68002B01D1012367E27B681B6803F0C5
:101D78000103002B75D0884B9B6803F00C03042BE0
:101D88000CD0854B9B6803F00C03082B12D1824BB7
:101D98005B6803F48003B3F5800F0BD17E4B1B689F
:101DA80003F40033002B5BD07B685B68002B57D1B2
:101DB800012342E27B685B68B3F5803F06D1764B2E
:101DC8001B68754A43F4803313601DE07B685B68C9
:101DD800B3F5A02F0CD1704B1B686F4A43F48023D6
:101DE80013606D4B1B686C4A43F4803313600BE03F
:101DF800694B1B68684A23F480331360664B1B6881
:101E0800654A23F4802313607B685B68002B13D03A
:101E1800FEF726FE386108E0FEF722FE02463B691F
:101E2800D31A642B01D9032307E25B4B1B6803F425
:101E38000033002BF0D014E0FEF712FE386108E002
:101E4800FEF70EFE02463B69D31A642B01D9032321
:101E5800F3E1514B1B6803F40033002BF0D100E091
:101E680000BF7B681B6803F00203002B63D04A4B5A
:101E78009B6803F00C03002B0BD0474B9B6803F0C7
:101E88000C03082B1CD1444B5B6803F48003002B24
:101E980016D1414B1B6803F00203002B05D07B6869
:101EA800DB68012B01D00123C7E13B4B1B6823F002
:101EB800F8027B681B69DB00374913430B603AE083
:101EC8007B68DB68002B20D0344B01221A60FEF7B8
:101ED800C7FD386108E0FEF7C3FD02463B69D31A27
:101EE800022B01D90323A8E12B4B1B6803F0020343
:101EF800002BF0D0284B1B6823F0F8027B681B6985
:101F0800DB00254913430B6015E0244B00221A60BF
:101F1800FEF7A6FD386108E0FEF7A2FD02463B6920
:101F2800D31A022B01D9032387E11B4B1B6803F04B
:101F38000203002BF0D17B681B6803F00803002B19
:101F480036D07B685B69002B16D0154B01221A60CE
:101F5800FEF786FD386108E0FEF782FD02463B6920
:101F6800D31A022B01D9032367E10B4B5B6F03F0F4
:101F78000203002BF0D01BE0094B00221A60FEF789
:101F88006FFD38610EE0FEF76BFD02463B69D31A20
:101F9800022B07D9032350E10038024000004742D2
:101FA800800E4742884B5B6F03F00203002BEAD197
:101FB8007B681B6803F00403002B00F09780002364
:101FC800FB75814B1B6C03F08053002B0FD1002352
:101FD800BB607D4B1B6C7C4A43F0805313647A4B87
:101FE8001B6C03F08053BB60BB680123FB75774B08
:101FF8001B6803F48073002B18D1744B1B68734A59
:1020080043F480731360FEF72BFD386108E0FEF798
:1020180027FD02463B69D31A022B01D903230CE1A1
:102028006A4B1B6803F48073002BF0D07B689B68B5
:10203800012B06D1644B1B6F634A43F001031367FE
:102048001CE07B689B68052B0CD15F4B1B6F5E4ABD
:1020580043F0040313675C4B1B6F5B4A43F00103B7
:1020680013670BE0584B1B6F574A23F001031367A4
:10207800554B1B6F544A23F0040313677B689B6816
:10208800002B15D0FEF7ECFC38610AE0FEF7E8FCFF
:1020980002463B69D31A41F28832934201D903239D
:1020A800CBE0494B1B6F03F00203002BEED014E08A
:1020B800FEF7D6FC38610AE0FEF7D2FC02463B691F
:1020C800D31A41F28832934201D90323B5E03E4B3B
:1020D8001B6F03F00203002BEED1FB7D012B05D112
:1020E800394B1B6C384A23F0805313647B689B6917
:1020F800002B00F0A180344B9B6803F00C03082BE5
:102108005CD07B689B69022B41D1314B00221A605D
:10211800FEF7A6FC386108E0FEF7A2FC02463B6920
:10212800D31A022B01D9032387E0274B1B6803F03E
:102138000073002BF0D17B68DA697B681B6A1A434D
:102148007B685B6A9B011A437B689B6A5B08013B5F
:102158001B041A437B68DB6A1B061B4913434B604D
:102168001B4B01221A60FEF77BFC386108E0FEF782
:1021780077FC02463B69D31A022B01D903235CE0A2
:10218800114B1B6803F00073002BF0D054E0104B88
:1021980000221A60FEF764FC386108E0FEF760FC74
:1021A80002463B69D31A022B01D9032345E0064BAB
:1021B8001B6803F00073002BF0D13DE07B689B693E
:1021C800012B07D1012338E000380240007000409D
:1021D800600047421B4B5B68FB607B689B69012B77
:1021E80028D0FB6803F480027B68DB699A4221D11E
:1021F800FB6803F03F027B681B6A9A421AD1FA68AF
:1022080047F6C07313407A68526A9201934211D11B
:10221800FB6803F440327B689B6A5B08013B1B0444
:102228009A4207D1FB6803F070627B68DB6A1B0681
:102238009A4201D0012300E0002318461837BD4612
:1022480080BD00BF0038024080B584B000AF786020
:1022580039607B68002B01D10123CCE0684B1B68F7
:1022680003F007033A689A420CD9654B3A68D2B230
:102278001A70634B1B6803F007033A689A4201D04F
:102288000123B8E07B681B6803F00203002B20D011
:102298007B681B6803F00403002B05D0594B9B682F
:1022A800584A43F4E05393607B681B6803F00803C3
:1022B800002B05D0534B9B68524A43F4604393600C
:1022C800504B9B6823F0F0027B689B684D49134391
:1022D8008B607B681B6803F00103002B44D07B688C
:1022E8005B68012B07D1474B1B6803F40033002BB5
:1022F80019D101237FE07B685B68022B03D07B68E0
:102308005B68032B07D13F4B1B6803F00073002B5E
:1023180009D101236FE03B4B1B6803F00203002B3C
:1023280001D1012367E0374B9B6823F003027B68E8
:102338005B68344913438B60FEF792FBF8600AE050
:10234800FEF78EFB0246FB68D31A41F288329342AD
:1023580001D903234FE02B4B9B6803F00C027B68E9
:102368005B689B009A42EBD1254B1B6803F007037F
:102378003A689A420CD2224B3A68D2B21A70204B71
:102388001B6803F007033A689A4201D0012332E040
:102398007B681B6803F00403002B08D0194B9B686B
:1023A80023F4E0527B68DB68164913438B607B6833
:1023B8001B6803F00803002B09D0124B9B6823F419
:1023C80060427B681B69DB000E4913438B6000F099
:1023D80021F802460B4B9B681B0903F00F030A49BF
:1023E800CB5C22FA03F3094A1360094B1B681846B1
:1023F800FEF7F2FA002318461037BD4680BD00BF2D
:10240800003C024000380240EC2600080000002092
:10241800040000202DE9B04F94B000AF00237B6486
:102428000023FB6400233B640023BB64794B9B6857
:1024380003F00C03082B0DD0082B00F2E180002BD1
:1024480002D0042B03D0DBE0734BBB64DBE0734B9F
:10245800BB64D8E06F4B5B6803F03F037B646D4B54
:102468005B6803F48003002B63D06A4B5B689B09AD
:102478000022BB63FA63BB6BC3F308033B6300230F
:102488007B63D7E90C4522462B464FF000004FF0FE
:102498000001590141EAD261500102460B4621462A
:1024A800511A3961294663EB01037B614FF0000241
:1024B8004FF00003D7E904AB59468B01514643EA74
:1024C800916351468A015146B2EB0108594663EBC4
:1024D80001094FF000024FF000034FEAC90343EA35
:1024E80058734FEAC80290469946234618EB0303EF
:1024F800BB602B4649EB0303FB604FF000024FF033
:102508000003D7E9024529464B02214643EAD15345
:1025180021464A02104619467B6C0022BB62FA62C9
:10252800D7E90A23FDF74CFE02460B461346FB6427
:1025380058E0384B5B689B09002218461146C0F3E7
:1025480008033B6200237B62D7E9088942464B4671
:102558004FF000004FF00001590141EAD2615001EB
:1025680002460B464146B2EB010A494663EB010BB2
:102578004FF000024FF000034FEA8B1343EA9A63CF
:102588004FEA8A12B2EB0A0463EB0B054FF0000224
:102598004FF00003EB0043EA5473E20014461D4673
:1025A8004346E3183B604B4645EB03037B604FF023
:1025B80000024FF00003D7E9004529468B02214667
:1025C80043EA915321468A02104619467B6C002241
:1025D800BB61FA61D7E90623FDF7F2FD02460B4617
:1025E8001346FB640B4B5B681B0C03F003030133BE
:1025F8005B003B64FA6C3B6CB2FBF3F3BB6402E038
:10260800054BBB6400BFBB6C18465037BD46BDE8E0
:10261800B08F00BF003802400024F40000127A0096
:10262800DFF834D00D480E490E4A002302E0D45892
:10263800C4500433C4188C42F9D30B4A0B4C002302
:1026480001E013600432A242FBD3FEF791F900F0D7
:1026580011F8FDF737FF7047000002200000002046
:102668000C0000200C2700080C000020B8000020F7
:10267800FEE7000070B50D4D0D4C641BA41000263C
:10268800A64209D10B4D0C4C00F020F8641BA41095
:102698000026A64205D170BD55F8043B984701367F
:1026A800EEE755F8043B98470136F2E7042700089F
:1026B80004270008042700080827000802440346E6
:1026C800934200D1704703F8011BF9E7F8B500BF42
:1026D800F8BC08BC9E467047F8B500BFF8BC08BCFB
:0426E8009E46704753
:1026EC0000000000000000000102030406070809B6
:0826FC00FCDAFF7F0100000081
:04270400AD0100081B
:04270800890100083B
:0C270C000024F400100000000100000098
:0400000508002629A0
:00000001FF
